{
  "_format": "hh-sol-artifact-1",
  "contractName": "L1Resolver",
  "sourceName": "contracts/L1Resolver.sol",
  "abi": [
    {
      "inputs": [
        {
          "internalType": "string",
          "name": "_url",
          "type": "string"
        },
        {
          "internalType": "address",
          "name": "_signer",
          "type": "address"
        },
        {
          "internalType": "address",
          "name": "_owner",
          "type": "address"
        }
      ],
      "stateMutability": "nonpayable",
      "type": "constructor"
    },
    {
      "inputs": [],
      "name": "ECDSAInvalidSignature",
      "type": "error"
    },
    {
      "inputs": [
        {
          "internalType": "uint256",
          "name": "length",
          "type": "uint256"
        }
      ],
      "name": "ECDSAInvalidSignatureLength",
      "type": "error"
    },
    {
      "inputs": [
        {
          "internalType": "bytes32",
          "name": "s",
          "type": "bytes32"
        }
      ],
      "name": "ECDSAInvalidSignatureS",
      "type": "error"
    },
    {
      "inputs": [],
      "name": "InvalidName",
      "type": "error"
    },
    {
      "inputs": [],
      "name": "InvalidSignature",
      "type": "error"
    },
    {
      "inputs": [
        {
          "internalType": "address",
          "name": "sender",
          "type": "address"
        },
        {
          "internalType": "string[]",
          "name": "urls",
          "type": "string[]"
        },
        {
          "internalType": "bytes",
          "name": "callData",
          "type": "bytes"
        },
        {
          "internalType": "bytes4",
          "name": "callbackFunction",
          "type": "bytes4"
        },
        {
          "internalType": "bytes",
          "name": "extraData",
          "type": "bytes"
        }
      ],
      "name": "OffchainLookup",
      "type": "error"
    },
    {
      "inputs": [
        {
          "internalType": "address",
          "name": "owner",
          "type": "address"
        }
      ],
      "name": "OwnableInvalidOwner",
      "type": "error"
    },
    {
      "inputs": [
        {
          "internalType": "address",
          "name": "account",
          "type": "address"
        }
      ],
      "name": "OwnableUnauthorizedAccount",
      "type": "error"
    },
    {
      "inputs": [],
      "name": "Unauthorized",
      "type": "error"
    },
    {
      "inputs": [],
      "name": "UnsupportedName",
      "type": "error"
    },
    {
      "anonymous": false,
      "inputs": [
        {
          "indexed": false,
          "internalType": "string",
          "name": "url",
          "type": "string"
        }
      ],
      "name": "GatewayChanged",
      "type": "event"
    },
    {
      "anonymous": false,
      "inputs": [
        {
          "indexed": false,
          "internalType": "bytes32",
          "name": "node",
          "type": "bytes32"
        },
        {
          "indexed": false,
          "internalType": "uint64",
          "name": "targetChainId",
          "type": "uint64"
        },
        {
          "indexed": false,
          "internalType": "address",
          "name": "targetRegistryAddress",
          "type": "address"
        }
      ],
      "name": "L2RegistrySet",
      "type": "event"
    },
    {
      "anonymous": false,
      "inputs": [
        {
          "indexed": true,
          "internalType": "address",
          "name": "previousOwner",
          "type": "address"
        },
        {
          "indexed": true,
          "internalType": "address",
          "name": "newOwner",
          "type": "address"
        }
      ],
      "name": "OwnershipTransferred",
      "type": "event"
    },
    {
      "anonymous": false,
      "inputs": [
        {
          "indexed": false,
          "internalType": "address",
          "name": "signer",
          "type": "address"
        }
      ],
      "name": "SignerChanged",
      "type": "event"
    },
    {
      "inputs": [],
      "name": "ens",
      "outputs": [
        {
          "internalType": "contract ENS",
          "name": "",
          "type": "address"
        }
      ],
      "stateMutability": "view",
      "type": "function"
    },
    {
      "inputs": [
        {
          "internalType": "bytes32",
          "name": "node",
          "type": "bytes32"
        }
      ],
      "name": "l2Registry",
      "outputs": [
        {
          "internalType": "uint64",
          "name": "chainId",
          "type": "uint64"
        },
        {
          "internalType": "address",
          "name": "registryAddress",
          "type": "address"
        }
      ],
      "stateMutability": "view",
      "type": "function"
    },
    {
      "inputs": [],
      "name": "nameWrapper",
      "outputs": [
        {
          "internalType": "contract INameWrapper",
          "name": "",
          "type": "address"
        }
      ],
      "stateMutability": "view",
      "type": "function"
    },
    {
      "inputs": [],
      "name": "owner",
      "outputs": [
        {
          "internalType": "address",
          "name": "",
          "type": "address"
        }
      ],
      "stateMutability": "view",
      "type": "function"
    },
    {
      "inputs": [],
      "name": "renounceOwnership",
      "outputs": [],
      "stateMutability": "nonpayable",
      "type": "function"
    },
    {
      "inputs": [
        {
          "internalType": "bytes",
          "name": "name",
          "type": "bytes"
        },
        {
          "internalType": "bytes",
          "name": "data",
          "type": "bytes"
        }
      ],
      "name": "resolve",
      "outputs": [
        {
          "internalType": "bytes",
          "name": "",
          "type": "bytes"
        }
      ],
      "stateMutability": "view",
      "type": "function"
    },
    {
      "inputs": [
        {
          "internalType": "bytes",
          "name": "response",
          "type": "bytes"
        },
        {
          "internalType": "bytes",
          "name": "extraData",
          "type": "bytes"
        }
      ],
      "name": "resolveWithProof",
      "outputs": [
        {
          "internalType": "bytes",
          "name": "",
          "type": "bytes"
        }
      ],
      "stateMutability": "view",
      "type": "function"
    },
    {
      "inputs": [
        {
          "internalType": "bytes32",
          "name": "node",
          "type": "bytes32"
        },
        {
          "internalType": "uint64",
          "name": "targetChainId",
          "type": "uint64"
        },
        {
          "internalType": "address",
          "name": "targetRegistryAddress",
          "type": "address"
        }
      ],
      "name": "setL2Registry",
      "outputs": [],
      "stateMutability": "nonpayable",
      "type": "function"
    },
    {
      "inputs": [
        {
          "internalType": "address",
          "name": "_signer",
          "type": "address"
        }
      ],
      "name": "setSigner",
      "outputs": [],
      "stateMutability": "nonpayable",
      "type": "function"
    },
    {
      "inputs": [
        {
          "internalType": "string",
          "name": "_url",
          "type": "string"
        }
      ],
      "name": "setURL",
      "outputs": [],
      "stateMutability": "nonpayable",
      "type": "function"
    },
    {
      "inputs": [],
      "name": "signer",
      "outputs": [
        {
          "internalType": "address",
          "name": "",
          "type": "address"
        }
      ],
      "stateMutability": "view",
      "type": "function"
    },
    {
      "inputs": [
        {
          "internalType": "bytes4",
          "name": "interfaceID",
          "type": "bytes4"
        }
      ],
      "name": "supportsInterface",
      "outputs": [
        {
          "internalType": "bool",
          "name": "",
          "type": "bool"
        }
      ],
      "stateMutability": "pure",
      "type": "function"
    },
    {
      "inputs": [
        {
          "internalType": "address",
          "name": "newOwner",
          "type": "address"
        }
      ],
      "name": "transferOwnership",
      "outputs": [],
      "stateMutability": "nonpayable",
      "type": "function"
    },
    {
      "inputs": [],
      "name": "url",
      "outputs": [
        {
          "internalType": "string",
          "name": "",
          "type": "string"
        }
      ],
      "stateMutability": "view",
      "type": "function"
    }
  ],
  "bytecode": "0x60a060405234801561001057600080fd5b5060405161222138038061222183398101604081905261002f916102be565b806001600160a01b03811661005e57604051631e4fbdf760e01b81526000600482015260240160405180910390fd5b61006781610218565b506001610074848261041b565b507f31a69bce870cd72c6e818e24ce57e4f1a972083f8136ef179bf6e430a7ffe724836040516100a491906104d9565b60405180910390a1600280546001600160a01b0319166001600160a01b0384169081179091556040519081527f5719a5656c5cfdaafa148ecf366fd3b0a7fae06449ce2a46225977fb7417e29d9060200160405180910390a1604051630178b8bf60e01b81527fdee478ba2734e34d81c6adc77a32d75b29007895efa2fe60921f1c315e1ec7d960048201819052906000906e0c2e074ec69a0dfb2997ba6c7d2e1e90630178b8bf90602401602060405180830381865afa15801561016d573d6000803e3d6000fd5b505050506040513d601f19601f82011682018060405250810190610191919061050c565b604051631d9dabef60e11b8152600481018490529091506000906001600160a01b03831690633b3b57de90602401602060405180830381865afa1580156101dc573d6000803e3d6000fd5b505050506040513d601f19601f82011682018060405250810190610200919061050c565b6001600160a01b03166080525061052e945050505050565b600080546001600160a01b038381166001600160a01b0319831681178455604051919092169283917f8be0079c531659141344cd1fd0a4f28419497f9722a3daafe3b4186f6b6457e09190a35050565b634e487b7160e01b600052604160045260246000fd5b60005b83811015610299578181015183820152602001610281565b50506000910152565b80516001600160a01b03811681146102b957600080fd5b919050565b6000806000606084860312156102d357600080fd5b83516001600160401b038111156102e957600080fd5b8401601f810186136102fa57600080fd5b80516001600160401b0381111561031357610313610268565b604051601f8201601f19908116603f011681016001600160401b038111828210171561034157610341610268565b60405281815282820160200188101561035957600080fd5b61036a82602083016020860161027e565b945061037b915050602085016102a2565b9150610389604085016102a2565b90509250925092565b600181811c908216806103a657607f821691505b6020821081036103c657634e487b7160e01b600052602260045260246000fd5b50919050565b601f82111561041657806000526020600020601f840160051c810160208510156103f35750805b601f840160051c820191505b8181101561041357600081556001016103ff565b50505b505050565b81516001600160401b0381111561043457610434610268565b610448816104428454610392565b846103cc565b6020601f82116001811461047c57600083156104645750848201515b600019600385901b1c1916600184901b178455610413565b600084815260208120601f198516915b828110156104ac578785015182556020948501946001909201910161048c565b50848210156104ca5786840151600019600387901b60f8161c191681555b50505050600190811b01905550565b60208152600082518060208401526104f881604085016020870161027e565b601f01601f19169190910160400192915050565b60006020828403121561051e57600080fd5b610527826102a2565b9392505050565b608051611cca610557600039600081816101fd0152818161065e01526106ab0152611cca6000f3fe608060405234801561001057600080fd5b50600436106100ca5760003560e01c8063773434081161007c57806377343408146101c15780638da5cb5b146101d45780639061b923146101e5578063a8e5fbc0146101f8578063ea6f36981461021f578063f2fde38b14610232578063f4d4d2f81461024557600080fd5b806301e93864146100cf57806301ffc9a714610136578063238ac933146101595780633f15457f146101795780635600f04f1461018f5780636c19e783146101a4578063715018a6146101b9575b600080fd5b61010a6100dd3660046114c9565b6003602052600090815260409020546001600160401b03811690600160401b90046001600160a01b031682565b604080516001600160401b0390931683526001600160a01b039091166020830152015b60405180910390f35b6101496101443660046114e2565b610258565b604051901515815260200161012d565b60025461016c906001600160a01b031681565b60405161012d9190611513565b61016c6e0c2e074ec69a0dfb2997ba6c7d2e1e81565b61019761028f565b60405161012d9190611577565b6101b76101b236600461159f565b61031d565b005b6101b761037b565b6101b76101cf366004611604565b61038f565b6000546001600160a01b031661016c565b6101976101f3366004611645565b6103e2565b61016c7f000000000000000000000000000000000000000000000000000000000000000081565b6101b761022d3660046116d0565b6105e8565b6101b761024036600461159f565b6107e8565b610197610253366004611645565b61082f565b60006001600160e01b03198216639061b92360e01b148061028957506301ffc9a760e01b6001600160e01b03198316145b92915050565b6001805461029c90611710565b80601f01602080910402602001604051908101604052809291908181526020018280546102c890611710565b80156103155780601f106102ea57610100808354040283529160200191610315565b820191906000526020600020905b8154815290600101906020018083116102f857829003601f168201915b505050505081565b61032561087d565b600280546001600160a01b0319166001600160a01b0383161790556040517f5719a5656c5cfdaafa148ecf366fd3b0a7fae06449ce2a46225977fb7417e29d90610370908390611513565b60405180910390a150565b61038361087d565b61038d60006108aa565b565b61039761087d565b60016103a48284836117af565b507f31a69bce870cd72c6e818e24ce57e4f1a972083f8136ef179bf6e430a7ffe72482826040516103d6929190611897565b60405180910390a15050565b6060600061042586868080601f0160208091040260200160405190810160405280939291908181526020018383808284376000920191909152506108fa92505050565b9050600061043282610a6e565b90506000610458604051806040016040528060018152602001601760f91b815250610a6e565b905060006104668383610a9b565b6104719060016118c1565b6001600160401b038111156104885761048861174a565b6040519080825280602002602001820160405280156104bb57816020015b60608152602001906001900390816104a65790505b50905060005b8151811015610501576104dc6104d78585610b3c565b610b5b565b8282815181106104ee576104ee6118d4565b60209081029190910101526001016104c1565b506000816002835161051391906118ea565b81518110610523576105236118d4565b6020026020010151826001845161053a91906118ea565b8151811061054a5761054a6118d4565b60200260200101516040516020016105639291906118fd565b6040516020818303038152906040529050600061057f82610bc3565b6000818152600360209081526040918290208251808401909352546001600160401b038116808452600160401b9091046001600160a01b03169183018290529294509092506105d6918e918e918e918e9190610db7565b9750505050505050505b949350505050565b6040516302571be360e01b8152600481018490526000906e0c2e074ec69a0dfb2997ba6c7d2e1e906302571be390602401602060405180830381865afa158015610636573d6000803e3d6000fd5b505050506040513d601f19601f8201168201806040525081019061065a9190611939565b90507f00000000000000000000000000000000000000000000000000000000000000006001600160a01b0316816001600160a01b031603610721576040516331a9108f60e11b8152600481018590527f00000000000000000000000000000000000000000000000000000000000000006001600160a01b031690636352211e90602401602060405180830381865afa1580156106fa573d6000803e3d6000fd5b505050506040513d601f19601f8201168201806040525081019061071e9190611939565b90505b6001600160a01b0381163314610749576040516282b42960e81b815260040160405180910390fd5b6040805180820182526001600160401b038581168083526001600160a01b03868116602080860182815260008c81526003835288902096518754915196166001600160e01b031990911617600160401b959093169490940291909117909355835188815291820152918201527f22fc8ff0ade903dbe00c0ed05a4069711947755d7ed877ae48a8ff5c046fda7a9060600160405180910390a150505050565b6107f061087d565b6001600160a01b038116610823576000604051631e4fbdf760e01b815260040161081a9190611513565b60405180910390fd5b61082c816108aa565b50565b606060008061084085858989610f12565b60025491935091506001600160a01b0380841691161461087357604051638baa579f60e01b815260040160405180910390fd5b9695505050505050565b6000546001600160a01b0316331461038d573360405163118cdaa760e01b815260040161081a9190611513565b600080546001600160a01b038381166001600160a01b0319831681178455604051919092169283917f8be0079c531659141344cd1fd0a4f28419497f9722a3daafe3b4186f6b6457e09190a35050565b805160609060018114801561092e57508260008151811061091d5761091d6118d4565b01602001516001600160f81b031916155b15610949575050604080516020810190915260008152919050565b600381101561096b5760405163430f13b360e01b815260040160405180910390fd5b60011901806001600160401b038111156109875761098761174a565b6040519080825280601f01601f1916602001820160405280156109b1576020820181803683370190505b5091506020830183830360001901815b805160f881901c60008190036109d8575050610a3f565b8281018587018111156109fe5760405163430f13b360e01b815260040160405180910390fd5b6001600160f81b0392909216601760f91b1784840181905291602084015b818111610a3157805186820152602001610a1c565b5060010192506109c1915050565b8360010183820314610a645760405163430f13b360e01b815260040160405180910390fd5b5050508152919050565b60408051808201825260008082526020918201528151808301909252825182529182019181019190915290565b6000808260000151610abf8560000151866020015186600001518760200151610fef565b610ac991906118c1565b90505b83516020850151610add91906118c1565b8111610b355781610aed81611956565b9250508260000151610b24856020015183610b0891906118ea565b8651610b1491906118ea565b8386600001518760200151610fef565b610b2e91906118c1565b9050610acc565b5092915050565b6040805180820190915260008082526020820152610b3583838361110f565b6060600082600001516001600160401b03811115610b7b57610b7b61174a565b6040519080825280601f01601f191660200182016040528015610ba5576020820181803683370190505b5090506000602082019050610b3581856020015186600001516111ba565b805160609060009081908490610bda8160026118c1565b6001600160401b03811115610bf157610bf161174a565b6040519080825280601f01601f191660200182016040528015610c1b576020820181803683370190505b50945060009350808403610c6057600060f81b85600081518110610c4157610c416118d4565b60200101906001600160f81b031916908160001a905350505050915091565b60001981015b828181518110610c7857610c786118d4565b01602001516001600160f81b031916601760f91b03610d06578360f81b868260010181518110610caa57610caa6118d4565b60200101906001600160f81b031916908160001a90535084610cd3846001840160ff8816611234565b60408051602081019390935282015260600160405160208183030381529060405280519060200120945060009350610d56565b600184019350828181518110610d1e57610d1e6118d4565b602001015160f81c60f81b868260010181518110610d3e57610d3e6118d4565b60200101906001600160f81b031916908160001a9053505b8015610d655760001901610c66565b5083610d7683600060ff8716611234565b6040805160208101939093528201526060016040516020818303038152906040528051906020012093508260f81b85600081518110610c4157610c416118d4565b60606000632175943060e01b888888888888604051602401610dde9695949392919061196f565b60408051601f19818403018152918152602080830180516001600160e01b03166001600160e01b031995909516949094179093528051600180825281830190925291935060009282015b6060815260200190600190039081610e2857905050905060018054610e4c90611710565b80601f0160208091040260200160405190810160405280929190818152602001828054610e7890611710565b8015610ec55780601f10610e9a57610100808354040283529160200191610ec5565b820191906000526020600020905b815481529060010190602001808311610ea857829003601f168201915b505050505081600081518110610edd57610edd6118d4565b6020908102919091010152604051630556f18360e41b815261081a90309083908590631e9a9a5f60e31b9082906004016119c3565b60006060818080610f2586880188611afd565b9250925092506000610f79610f7330858d8d8080601f0160208091040260200160405190810160405280939291908181526020018383808284376000920191909152508b9250611258915050565b836112d0565b905042836001600160401b03161015610fe05760405162461bcd60e51b8152602060048201526024808201527f5369676e617475726556657269666965723a205369676e6174757265206578706044820152631a5c995960e21b606482015260840161081a565b99929850919650505050505050565b600083818685116110fa57602085116110a9576000851561103b5760016110178760206118ea565b611022906008611b74565b61102d906002611c72565b61103791906118ea565b1990505b8451811660008761104c8b8b6118c1565b61105691906118ea565b855190915083165b82811461109b57818610611083576110768b8b6118c1565b96505050505050506105e0565b8561108d81611956565b96505083865116905061105e565b8596505050505050506105e0565b508383206000905b6110bb86896118ea565b82116110f8578583208082036110d757839450505050506105e0565b6110e26001856118c1565b93505081806110f090611956565b9250506110b1565b505b61110487876118c1565b979650505050505050565b604080518082019091526000808252602082015260006111418560000151866020015186600001518760200151610fef565b60208087018051918601919091525190915061115d90826118ea565b83528451602086015161117091906118c1565b810361117f57600085526111b1565b8351835161118d91906118c1565b8551869061119c9083906118ea565b90525083516111ab90826118c1565b60208601525b50909392505050565b602081106111f257815183526111d16020846118c1565b92506111de6020836118c1565b91506111eb6020826118ea565b90506111ba565b60001981156112215760016112088360206118ea565b61121490610100611c72565b61121e91906118ea565b90505b9151835183169219169190911790915250565b825160009061124383856118c1565b111561124e57600080fd5b5091016020012090565b815160209283012081519183019190912060408051601960f81b8186015260609690961b6bffffffffffffffffffffffff1916602287015260c09490941b6001600160c01b0319166036860152603e850191909152605e8085019190915282518085039091018152607e909301909152815191012090565b6000806000806112e086866112fa565b9250925092506112f08282611347565b5090949350505050565b600080600083516041036113345760208401516040850151606086015160001a61132688828585611404565b955095509550505050611340565b50508151600091506002905b9250925092565b600082600381111561135b5761135b611c7e565b03611364575050565b600182600381111561137857611378611c7e565b036113965760405163f645eedf60e01b815260040160405180910390fd5b60028260038111156113aa576113aa611c7e565b036113cb5760405163fce698f760e01b81526004810182905260240161081a565b60038260038111156113df576113df611c7e565b03611400576040516335e2f38360e21b81526004810182905260240161081a565b5050565b600080806fa2a8918ca85bafe22016d0b997e4df60600160ff1b0384111561143557506000915060039050826114bf565b604080516000808252602082018084528a905260ff891692820192909252606081018790526080810186905260019060a0016020604051602081039080840390855afa158015611489573d6000803e3d6000fd5b5050604051601f1901519150506001600160a01b0381166114b5575060009250600191508290506114bf565b9250600091508190505b9450945094915050565b6000602082840312156114db57600080fd5b5035919050565b6000602082840312156114f457600080fd5b81356001600160e01b03198116811461150c57600080fd5b9392505050565b6001600160a01b0391909116815260200190565b60005b8381101561154257818101518382015260200161152a565b50506000910152565b60008151808452611563816020860160208601611527565b601f01601f19169290920160200192915050565b60208152600061150c602083018461154b565b6001600160a01b038116811461082c57600080fd5b6000602082840312156115b157600080fd5b813561150c8161158a565b60008083601f8401126115ce57600080fd5b5081356001600160401b038111156115e557600080fd5b6020830191508360208285010111156115fd57600080fd5b9250929050565b6000806020838503121561161757600080fd5b82356001600160401b0381111561162d57600080fd5b611639858286016115bc565b90969095509350505050565b6000806000806040858703121561165b57600080fd5b84356001600160401b0381111561167157600080fd5b61167d878288016115bc565b90955093505060208501356001600160401b0381111561169c57600080fd5b6116a8878288016115bc565b95989497509550505050565b80356001600160401b03811681146116cb57600080fd5b919050565b6000806000606084860312156116e557600080fd5b833592506116f5602085016116b4565b915060408401356117058161158a565b809150509250925092565b600181811c9082168061172457607f821691505b60208210810361174457634e487b7160e01b600052602260045260246000fd5b50919050565b634e487b7160e01b600052604160045260246000fd5b601f8211156117aa57806000526020600020601f840160051c810160208510156117875750805b601f840160051c820191505b818110156117a75760008155600101611793565b50505b505050565b6001600160401b038311156117c6576117c661174a565b6117da836117d48354611710565b83611760565b6000601f84116001811461180e57600085156117f65750838201355b600019600387901b1c1916600186901b1783556117a7565b600083815260209020601f19861690835b8281101561183f578685013582556020948501946001909201910161181f565b508682101561185c5760001960f88860031b161c19848701351681555b505060018560011b0183555050505050565b81835281816020850137506000828201602090810191909152601f909101601f19169091010190565b6020815260006105e060208301848661186e565b634e487b7160e01b600052601160045260246000fd5b80820180821115610289576102896118ab565b634e487b7160e01b600052603260045260246000fd5b81810381811115610289576102896118ab565b6000835161190f818460208801611527565b601760f91b908301908152835161192d816001840160208801611527565b01600101949350505050565b60006020828403121561194b57600080fd5b815161150c8161158a565b600060018201611968576119686118ab565b5060010190565b60808152600061198360808301888a61186e565b828103602084015261199681878961186e565b6001600160401b0395909516604084015250506001600160a01b0391909116606090910152949350505050565b600060a0820160018060a01b038816835260a0602084015280875180835260c08501915060c08160051b86010192506020890160005b82811015611a2a5760bf19878603018452611a1585835161154b565b945060209384019391909101906001016119f9565b505050508281036040840152611a40818761154b565b6001600160e01b03198616606085015290508281036080840152611a64818561154b565b98975050505050505050565b600082601f830112611a8157600080fd5b81356001600160401b03811115611a9a57611a9a61174a565b604051601f8201601f19908116603f011681016001600160401b0381118282101715611ac857611ac861174a565b604052818152838201602001851015611ae057600080fd5b816020850160208301376000918101602001919091529392505050565b600080600060608486031215611b1257600080fd5b83356001600160401b03811115611b2857600080fd5b611b3486828701611a70565b935050611b43602085016116b4565b915060408401356001600160401b03811115611b5e57600080fd5b611b6a86828701611a70565b9150509250925092565b8082028115828204841417610289576102896118ab565b6001815b6001841115611bc657808504811115611baa57611baa6118ab565b6001841615611bb857908102905b60019390931c928002611b8f565b935093915050565b600082611bdd57506001610289565b81611bea57506000610289565b8160018114611c005760028114611c0a57611c26565b6001915050610289565b60ff841115611c1b57611c1b6118ab565b50506001821b610289565b5060208310610133831016604e8410600b8410161715611c49575081810a610289565b611c566000198484611b8b565b8060001904821115611c6a57611c6a6118ab565b029392505050565b600061150c8383611bce565b634e487b7160e01b600052602160045260246000fdfea2646970667358221220d4b7b38b9d493d7a97e3d998e9409b86f05f9ae62e07c5f9ca2147e138c3084e64736f6c634300081c0033",
  "linkReferences": {},
  "deployedLinkReferences": {}
}